:020000040800F2
:10000000002800204D0E00089D0E00089D0E0008DF
:100010009D0E00089D0E00089D0E000800000000C7
:100020000000000000000000000000009D0E00081D
:100030009D0E0008000000009D0E00089D0E0008A7
:100040009D0E00089D0E00089D0E00089D0E0008E4
:100050009D0E00089D0E0008710100089501000822
:10006000B9010008DD010008010200089D0E00082A
:100070009D0E00089D0E00089D0E00089D0E0008B4
:100080009D0E00089D0E00089D0E00089D0E0008A4
:100090009D0E00089D0E00089D0E00082502000818
:1000A0009D0E00089D0E00089D0E00089D0E000884
:1000B0009D0E00089D0E00089D0E00089D0E000874
:1000C0009D0E00089D0E00089D0E0008B90900084D
:1000D000150A0008F90C00080D0D0008210D000894
:1000E000CD0200089D0E0008000000009D0E0008D3
:1000F0009D0E00089D0E00089D0E00089D0E000834
:100100009D0E00089D0E00089D0E00089D0E000823
:100110009D0E00089D0E00089D0E00089D0E000813
:100120009D0E00089D0E00089D0E00089D0E000803
:1001300010B5054C237833B9044B13B10448AFF321
:1001400000800123237010BD00000020000000008B
:10015000E80E000808B5034B1BB103490348AFF391
:10016000008008BD0000000004000020E80E000828
:1001700080B500AF054B5B69044A43F0010353614E
:10018000034B1B68984700BF80BD00BF00040140BF
:100190002800002080B500AF054B5B69044A43F09E
:1001A00002035361034B5B68984700BF80BD00BFEB
:1001B000000401402800002080B500AF054B5B69BA
:1001C000044A43F004035361034B9B68984700BF04
:1001D00080BD00BF000401402800002080B500AFB2
:1001E000054B5B69044A43F008035361034BDB682A
:1001F000984700BF80BD00BF0004014028000020D8
:1002000080B500AF054B5B69044A43F010035361AE
:10021000034B1B69984700BF80BD00BF000401402D
:100220002800002080B500AF264B5B6903F0200357
:10023000002B08D0234B5B69224A43F02003536113
:10024000214B5B6998471F4B5B6903F04003002B10
:1002500008D01C4B5B691B4A43F0400353611A4BA7
:100260009B699847174B5B6903F08003002B08D00C
:10027000144B5B69134A43F080035361124BDB69F3
:100280009847104B5B6903F48073002B08D00D4B2B
:100290005B690C4A43F4807353610B4B1B6A9847AC
:1002A000084B5B6903F40073002B08D0054B5B69B6
:1002B000044A43F400735361034B5B6A984700BFE1
:1002C00080BD00BF000401402800002080B500AFC1
:1002D0002D4B5B6903F48063002B08D02A4B5B69CC
:1002E000294A43F480635361284B9B6A9847264B05
:1002F0005B6903F40063002B08D0234B5B69224A3F
:1003000043F400635361214BDB6A98471E4B5B69E2
:1003100003F48053002B08D01B4B5B691A4A43F44B
:1003200080535361194B1B6B9847174B5B6903F460
:100330000053002B08D0144B5B69134A43F400535D
:100340005361124B5B6B98470F4B5B6903F480431F
:10035000002B08D00C4B5B690B4A43F4804353617C
:100360000A4B9B6B9847084B5B6903F40043002BD7
:1003700008D0054B5B69044A43F400435361034BC7
:10038000DB6B984700BF80BD0004014028000020BF
:1003900080B483B000AF0346FB80FB88802B42D043
:1003A000802B11DC082B36D0082B06DC022B2ED03C
:1003B000042B2ED0012B28D047E0202B2FD0402B10
:1003C0002FD0102B29D040E0B3F5006F33D0B3F518
:1003D000006F09DCB3F5007F29D0B3F5806F28D01A
:1003E000B3F5807F21D030E0B3F5005F27D0B3F5BF
:1003F000005F03DCB3F5805F1FD026E0B3F5804FCC
:100400001FD0B3F5004F1ED01FE000231EE00423D1
:100410001CE008231AE00C2318E0102316E0142334
:1004200014E0182312E01C2310E000230EE0042344
:100430000CE008230AE00C2308E0102306E0142354
:1004400004E0182302E01C2300E0002318460C37C8
:10045000BD4680BC704790B585B000AF786039600C
:100460000023FB600023FB723B681B88FF2B01D835
:100470007B6801E07B680433FB603B681B8818469F
:10048000FFF786FF03461A460F239340DA43FB68C3
:100490001B681A40FB681A603B689B78042B0BD0E2
:1004A0003B689B78052B07D03B689B78062B03D0D5
:1004B0003B689B78072B1CD13B689B78043B9B00D7
:1004C0005AB23B68DB785BB213435BB2DBB203F03A
:1004D0000F03FB72FC7A3B681B881846FFF758FF36
:1004E000034604FA03F2FB681B681A43FB681A60B0
:1004F00057E03B689B78002B03D03B689B78012B2F
:1005000015D13B689B789B00DBB203F00F03FB72B5
:10051000FC7A3B681B881846FFF73AFF034604FA4B
:1005200003F2FB681B681A43FB681A6039E03B68FA
:100530009B78082B10D10023FB72FC7A3B681B8848
:100540001846FFF725FF034604FA03F2FB681B6811
:100550001A43FB681A6024E00823FB72FC7A3B68AC
:100560001B881846FFF714FF034604FA03F2FB68E2
:100570001B681A43FB681A603B689B78022B07D103
:100580007B68DB683A6812881A437B68DA6008E0A7
:100590007B68DB683A681288D2431A407B68DA606D
:1005A000FFE700BF1437BD4690BD000080B400AF28
:1005B0000A4B5B689B0803F00303012B06D0012B59
:1005C00002D3022B04D005E0054B03E0054B01E00C
:1005D000044BFFE71846BD4680BC70470010024040
:1005E00000127A000024F40080B500AFFFF7DEFFB0
:1005F0000146054B5B681B0903F00F03034AD35CFC
:1006000021FA03F3184680BD00100240080F0008CD
:1006100080B500AFFFF7E8FF0146054B5B681B0A9A
:1006200003F00703034AD35C21FA03F3184680BDA5
:1006300000100240000F000880B500AFFFF7D4FFA4
:100640000146054B5B68DB0A03F00703034AD35CF2
:1006500021FA03F3184680BD00100240000F000885
:1006600080B485B000AF786039600023FB8100233F
:10067000BB817B683B4A934209D13B4A3B6813608C
:100680003A4B9B69394A43F4805393610CE07B6891
:10069000374A934208D1344A3B685360334BDB6995
:1006A000324A43F48043D3614023FB813B681A887C
:1006B000FB891343FB813B685A88FB891343FB8109
:1006C0003B689A88FB891343FB813B68DA88FB8986
:1006D0001343FB813B681A89FB891343FB813B6809
:1006E0005A89FB891343FB813B689B89042B05D105
:1006F0003B689A89BB891343BB8104E03B689A89B4
:10070000FB891343FB813B68DA89FB891343FB8137
:100710003B681B8A002B19D03B681A8ABB8913439C
:10072000BB817B680F4A934206D1124B1B68114A6A
:1007300043F00803136009E07B680D4A934205D13A
:100740000C4B1B680B4A43F010031360FA897B685B
:100750001A60BA897B685A6000BF1437BD4680BCF6
:10076000704700BF003001401C0000200010024014
:100770000038004004E100E080B584B000AF78604C
:100780007B68734A934269D1724B1B681B88042BA8
:1007900034D1704B1B689B89042B0CD11023BB8177
:1007A0000623BB730123FB7307F10C0319466A4848
:1007B000FFF751FE00BF2023BB810623BB7301233B
:1007C000FB7307F10C0319466348FFF744FE40230F
:1007D000BB810123BB7307F10C0319465E48FFF789
:1007E0003AFE8023BB810623BB730123FB7307F111
:1007F0000C0319465848FFF72EFEA4E0554B1B6822
:100800009B89002B09D11023BB810123BB7307F106
:100810000C0319465048FFF71EFE2023BB8101231D
:10082000BB7307F10C0319464B48FFF714FE402336
:10083000BB810623BB730123FB7307F10C0319462D
:100840004548FFF708FE8023BB810823BB7307F1EF
:100850000C0319464048FFF7FEFD74E07B683F4AF1
:10086000934270D13B4B5B681B88042B38D1394BCA
:100870005B689B89042B0DD14FF48053BB81062309
:10088000BB730123FB7307F10C0319463448FFF7D0
:10089000E2FD00BF4FF40053BB810623BB7301236D
:1008A000FB7307F10C0319462D48FFF7D4FD4FF4F5
:1008B0008043BB810123BB7307F10C031946284811
:1008C000FFF7C9FD4FF40043BB810623BB7301232F
:1008D000FB7307F10C0319462148FFF7BCFD32E01A
:1008E0001C4B5B689B89002B0AD14FF48053BB8162
:1008F0000123BB7307F10C0319461948FFF7ABFD41
:100900004FF40053BB810123BB7307F10C0319465D
:100910001348FFF7A0FD4FF48043BB810623BB7350
:100920000123FB7307F10C0319460D48FFF793FDF4
:100930004FF40043BB810823BB7307F10C03194636
:100940000748FFF788FD00BF1037BD4680BD00BFD8
:10095000003001401C000020000801400038004029
:10096000000C014080B485B000AFF860B960134658
:10097000FB71FB79002B06D100BFFB689B6803F07D
:100980000203002BF9D0BB681B881A46FB68DA60AB
:10099000FB79002B06D100BFFB689B6803F00103C5
:1009A000002BF9D0FB68DB689AB2BB681A8000BFE5
:1009B0001437BD4680BC704780B582B000AF134B82
:1009C0009B685B0803F00103DAB23B7962F3000332
:1009D0003B710E4B9B6803F00103DAB23B7962F383
:1009E00041033B71094B9B681B0903F00103DAB219
:1009F0003B7962F382033B71054B1B685B69387975
:100A0000984700BF0837BD4680BD00BF0030014099
:100A10001C00002080B582B000AF134B9B685B08C0
:100A200003F00103DAB23B7962F300033B710E4B32
:100A30009B6803F00103DAB23B7962F341033B7137
:100A4000094B9B681B0903F00103DAB23B7962F39F
:100A500082033B71054B5B685B693879984700BF3F
:100A60000837BD4680BD00BF003800401C00002094
:100A700080B584B000AF78603960574A3B68136036
:100A80007B68564A934206D1554B9B69544A43F4BE
:100A90008043936114E07B68524A934206D1504BE5
:100AA000DB694F4A43F40033D36109E07B684E4A67
:100AB000934205D14A4BDB69494A43F48023D36111
:100AC0007B68DB6843F400527B68DA607B68DB6834
:100AD0003A6812781A437B68DA607B68DB683A68A8
:100AE000127A1A437B68DA607B68DB683A68527A6C
:100AF0001A437B68DA607B681B693A68927A1A430A
:100B00007B681A617B685B693A68D27A1A437B68B2
:100B10005A617B68314A934203D1FFF78DFDF8603B
:100B200002E0FFF775FDF8603B685B681B01FA683F
:100B3000B2FBF3F31901FA6813469B0013449A00C1
:100B40001A443B685B689B00B2FBF3F23B685B684E
:100B50001B01F868B0FBF3F3642000FB03F3D31A26
:100B60001B01224AA2FB03235B0903F00F030B4383
:100B7000BB607B68BA689A603B681B7B002B26D001
:100B80007B68DB683A68127B1A437B68DA607B68B3
:100B9000124A934206D1164B1B68154A43F02003B4
:100BA000136014E07B680F4A934206D1104B1B6818
:100BB0000F4A43F04003136009E07B680A4A9342FE
:100BC00005D10B4B1B680A4A43F08003136000BF3A
:100BD0001037BD4680BD00BF240000200038014012
:100BE0000010024000440040004800401F85EB51C7
:100BF00004E100E080B584B000AF78607B682B4AE8
:100C0000934218D14FF40073BB810623BB730123B9
:100C1000FB7307F10C0319462548FFF71CFC4FF442
:100C20008063BB810823BB7307F10C03194620487E
:100C3000FFF711FC36E07B681E4A934216D104236D
:100C4000BB810623BB730123FB7307F10C03194619
:100C50001748FFF700FC0823BB810823BB7307F18B
:100C60000C0319461248FFF7F6FB1BE07B68124A9B
:100C7000934217D14FF48063BB810623BB730123DA
:100C8000FB7307F10C0319460C48FFF7E4FB4FF424
:100C90000063BB810823BB7307F10C0319460748A7
:100CA000FFF7D9FB00BF1037BD4680BD00380140BB
:100CB000000801400044004000480040000C014092
:100CC00080B485B000AFF860B9601346FB71FB7962
:100CD000002B06D100BFFB681B6803F08003002BCC
:100CE000F9D0BB681B88DAB2FB685A6000BF1437C2
:100CF000BD4680BC7047000080B500AF024B1B684A
:100D00001B69984700BF80BD2400002080B500AF5C
:100D1000024B1B681B69984700BF80BD2400002060
:100D200080B500AF024B1B681B69984700BF80BDB0
:100D30002400002080B400AF0A4B9B69094A43F0AD
:100D400004039361074B9B69064A43F008039361D0
:100D5000044B9B69034A43F00103936100BFBD4606
:100D600080BC70470010024080B582B000AF38717F
:100D70003B7903F00203DBB2002B0CD0084B0F22AF
:100D80001A70012206490748FFF7ECFD00220449CA
:100D90000548FFF795FF00BF0837BD4680BD00BF7F
:100DA00064000020003001400038014080B400AFF2
:100DB00000BFBD4680BC704780B58CB000AFFFF768
:100DC000B9FF4FF4E1333B62002387F8273020233B
:100DD00087F82830194BFB62002387F82530002361
:100DE00087F82430002387F826300C233B7707F15F
:100DF0001C0319461248FFF73BFE1148FFF7FAFEA5
:100E00000023FB810223BB8100237B8100233B81E4
:100E100010237B820023FB800023BB804023BB8206
:100E200000233B82074BBB613B1D19460648FFF779
:100E300017FC0548FFF7A0FCFEE700BFAD0D00085A
:100E400000380140690D0008003001400D4885461A
:100E5000AFF300800C480D490D4A002302E0D4583E
:100E6000C4500433C4188C42F9D30A4A0A4C0023F4
:100E700001E013600432A242FBD300F011F8FFF747
:100E80009BFFFEE70028002000000020000000205B
:100E9000200F00080000002068000020FEE700008E
:100EA00070B500250C4E0D4CA41BA410A54209D111
:100EB00000F01AF800250A4E0A4CA41BA410A54203
:100EC00005D170BD56F8253098470135EEE756F844
:100ED000253098470135F2E7180F0008180F000871
:100EE000180F00081C0F0008F8B500BFF8BC08BCBC
:100EF0009E467047F8B500BFF8BC08BC9E467047D8
:100F000000000000010203040000000000000000D7
:080F10000102030405060708B5
:040F18005501000877
:040F1C003101000897
:0400000508000E4D94
:00000001FF
