:020000040800F2
:1000000000280020050500085505000855050008D2
:1000100055050008550500085505000800000000BA
:10002000000000000000000000000000550500086E
:10003000550500080000000055050008550500089A
:100040005505000855050008550500085505000828
:100050005505000855050008550500085505000818
:100060005505000855050008550500085505000808
:1000700055050008550500085505000855050008F8
:1000800055050008550500085505000855050008E8
:1000900055050008550500085505000855050008D8
:1000A00055050008550500085505000855050008C8
:1000B00055050008550500085505000855050008B8
:1000C00055050008550500085505000855050008A8
:1000D0005505000855050008550500085505000898
:1000E00055050008550500080000000055050008EA
:1000F0005505000855050008550500085505000878
:100100005505000855050008550500085505000867
:100110005505000855050008550500085505000857
:100120005505000855050008550500085505000847
:1001300010B5054C237833B9044B13B10448AFF321
:1001400000800123237010BD00000020000000008B
:10015000A005000808B5034B1BB103490348AFF3E2
:10016000008008BD0000000004000020A005000879
:1001700080B483B000AF0346FB80FB88802B42D065
:10018000802B11DC082B36D0082B06DC022B2ED05E
:10019000042B2ED0012B28D047E0202B2FD0402B32
:1001A0002FD0102B29D040E0B3F5006F33D0B3F53A
:1001B000006F09DCB3F5007F29D0B3F5806F28D03C
:1001C000B3F5807F21D030E0B3F5005F27D0B3F5E1
:1001D000005F03DCB3F5805F1FD026E0B3F5804FEE
:1001E0001FD0B3F5004F1ED01FE000231EE00423F4
:1001F0001CE008231AE00C2318E0102316E0142357
:1002000014E0182312E01C2310E000230EE0042366
:100210000CE008230AE00C2308E0102306E0142376
:1002200004E0182302E01C2300E0002318460C37EA
:10023000BD4680BC704790B585B000AF786039602E
:100240000023FB600023FB723B681B88FF2B01D857
:100250007B6801E07B680433FB603B681B881846C1
:10026000FFF786FF03461A460F239340DA43FB68E5
:100270001B681A40FB681A603B689B78042B0BD004
:100280003B689B78052B07D03B689B78062B03D0F7
:100290003B689B78072B1CD13B689B78043B9B00F9
:1002A0005AB23B68DB785BB213435BB2DBB203F05C
:1002B0000F03FB72FC7A3B681B881846FFF758FF58
:1002C000034604FA03F2FB681B681A43FB681A60D2
:1002D00057E03B689B78002B03D03B689B78012B51
:1002E00015D13B689B789B00DBB203F00F03FB72D8
:1002F000FC7A3B681B881846FFF73AFF034604FA6E
:1003000003F2FB681B681A43FB681A6039E03B681C
:100310009B78082B10D10023FB72FC7A3B681B886A
:100320001846FFF725FF034604FA03F2FB681B6833
:100330001A43FB681A6024E00823FB72FC7A3B68CE
:100340001B881846FFF714FF034604FA03F2FB6804
:100350001B681A43FB681A603B689B78022B07D125
:100360007B68DB683A6812881A437B68DA6008E0C9
:100370007B68DB683A681288D2431A407B68DA608F
:10038000FFE700BF1437BD4690BD80B485B000AF15
:1003900078600B467B807B689A687B881340002BD3
:1003A00002D00123FB7301E00023FB73FB7B1846A3
:1003B0001437BD4680BC704780B483B000AF78600E
:1003C0000B467B807B68DA687B885A407B68DA6002
:1003D00000BF0C37BD4680BC7047000080B400AF42
:1003E000074B9B69064A43F004039361044B9B69E6
:1003F000034A43F00803936100BFBD4680BC7047C9
:100400000010024080B582B000AF0223BB80012300
:10041000BB713B1D19461448FFF70DFF0223BB803B
:100420000423BB710123FB713B1D19460F48FFF7E5
:1004300002FF4FF40053BB800123BB713B1D1946E3
:100440000948FFF7F8FE4FF40053BB800423BB714B
:100450000123FB713B1D19460448FFF7ECFE00BF6A
:100460000837BD4680BD00BF00080140000C0140B8
:1004700080B485B000AF78600023FB600BE0002300
:10048000BB6002E0BB680133BB60BB68FE2BF9D9DF
:10049000FB680133FB60FA687B689A42EFD300BFC8
:1004A0001437BD4680BC704780B500AFFFF796FF9C
:1004B000FFF7A8FF02211148FFF767FF0346002B53
:1004C0000BD102210E48FFF777FF00BF02210B4836
:1004D000FFF75BFF0346002BF8D04FF400510748AD
:1004E000FFF753FF0346012B04D14FF4005104489A
:1004F000FFF762FF0120FFF7BBFFDBE700080140C9
:10050000000C01400D488546AFF300800C480D49B2
:100510000D4A002302E0D458C4500433C4188C425E
:10052000F9D30A4A0A4C002301E013600432A242C4
:10053000FBD300F011F8FFF7B7FFFEE7002800201B
:100540000000002000000020C0050008000000207E
:100550001C000020FEE7000070B500250C4E0D4C7D
:10056000A41BA410A54209D100F01AF800250A4ED8
:100570000A4CA41BA410A54205D170BD56F8253025
:1005800098470135EEE756F8253098470135F2E7F0
:10059000B8050008B8050008B8050008BC05000843
:1005A000F8B500BFF8BC08BC9E467047F8B500BF60
:0805B000F8BC08BC9E46704730
:0405B80055010008E1
:0405BC003101000801
:0400000508000505E5
:00000001FF
