:020000040800F2
:10000000002800207D0D0008CD0D0008CD0D000852
:10001000CD0D0008CD0D0008CD0D0008000000003A
:10002000000000000000000000000000CD0D0008EE
:10003000CD0D000800000000CD0D0008CD0D00081A
:10004000CD0D0008CD0D0008CD0D0008CD0D000828
:10005000CD0D0008CD0D0008210800084508000856
:10006000690800088D080008B1080008CD0D0008D7
:10007000CD0D0008CD0D0008CD0D0008CD0D0008F8
:10008000CD0D0008CD0D0008CD0D0008CD0D0008E8
:10009000CD0D0008CD0D0008CD0D0008D5080008D5
:1000A000CD0D0008CD0D0008CD0D0008CD0D0008C8
:1000B000CD0D0008CD0D0008CD0D0008CD0D0008B8
:1000C000CD0D0008CD0D0008CD0D0008CD0D0008A8
:1000D000CD0D0008CD0D0008CD0D0008CD0D000898
:1000E0007D090008CD0D000800000000CD0D0008BE
:1000F000CD0D0008CD0D0008CD0D0008CD0D000878
:10010000CD0D0008CD0D0008CD0D0008CD0D000867
:10011000CD0D0008CD0D0008CD0D0008CD0D000857
:10012000CD0D0008CD0D0008CD0D0008CD0D000847
:1001300010B5054C237833B9044B13B10448AFF321
:1001400000800123237010BD00000020000000008B
:10015000180E000808B5034B1BB103490348AFF361
:10016000008008BD0000000004000020180E0008F8
:1001700080B485B000AF78600023FB600BE0002303
:10018000BB6002E0BB680133BB60BB68FE2BF9D9E2
:10019000FB680133FB60FA687B689A42EFD300BFCB
:1001A0001437BD4680BC704780B500AF524B4FF44A
:1001B00080721A80504B04229A704F4B0122DA70E1
:1001C0004D494E4800F09FFC4B4B4FF400721A8093
:1001D000494B04229A70484B0122DA70464947483D
:1001E00000F091FC444B4FF480621A80424B042291
:1001F0009A70414B0122DA703F49404800F083FC7D
:100200003D4B01221A803C4B04229A703A4B01224A
:10021000DA703949394800F076FC374B02221A80EF
:10022000354B04229A70344B0122DA70324933483C
:1002300000F069FC304B04221A802F4B04229A7084
:100240002D4B0122DA702C492C4800F05CFC2A4B23
:1002500008221A80284B04229A70274B0122DA7058
:100260002549264800F04FFC234B10221A80224BD0
:1002700004229A70204B0122DA701F491F4800F0B7
:1002800042FC1D4B20221A801B4B04229A701A4BF1
:100290000122DA701849194800F035FC164B40224B
:1002A0001A80154B04229A70134B0122DA701249FE
:1002B000124800F028FC104B80221A800E4B0422BA
:1002C0009A700D4B0122DA700B490C4800F01BFCB0
:1002D00000224FF48061094800F0BFFC00224FF477
:1002E0008071064800F0B9FC00224FF40071034809
:1002F00000F0B3FC00BF80BD2000002000080140DA
:1003000080B500AF012000F057F800BF80BD0000AD
:1003100080B500AF01224FF48061074800F09DFCDA
:100320003220FFF725FF00224FF48061024800F0E1
:1003300094FC00BF80BD00BF0008014080B582B0C2
:1003400000AF03460A46FB711346BB71FB79012BD4
:1003500008D1BB790F2B05D8BB79803BDBB218469F
:1003600000F02AF8FB79022B08D1BB790F2B05D8B6
:10037000BB79403BDBB2184600F01EF800BF0837DF
:10038000BD4680BD80B500AF1420FFF7F1FEFFF73A
:100390000BFF0F20FFF7ECFEFFF7B2FF382000F055
:1003A0000BF8062000F008F8802000F005F80F2078
:1003B00000F002F800BF80BD80B582B000AF0346F8
:1003C000FB71FB799BB219460B4800F05DFC0022E3
:1003D0004FF40071084800F040FC00224FF4807197
:1003E000054800F03AFC0120FFF7C2FEFFF790FF3E
:1003F00000BF0837BD4680BD0008014080B582B00F
:1004000000AF0346FB71FB799BB219460B4800F025
:100410003BFC00224FF40071084800F01EFC012252
:100420004FF48071054800F018FC0120FFF7A0FE92
:10043000FFF76EFF00BF0837BD4680BD00080140D2
:1004400080B584B000AF78600023FB601CE0FB68DF
:100450000133FB607B685A1C7A601B781846FFF7F3
:10046000CDFFFB68102B04D100210220FFF766FFAF
:100470000AE0FB68202B07D1FFF742FF0021012093
:10048000FFF75CFF0023FB607B681B78002BDED14D
:1004900000BF1037BD4680BD80B483B000AF0346B7
:1004A000FB80FB880F2B54D801A252F823F000BF29
:1004B000F1040008FF0400080D0500081B050008F2
:1004C000290500083705000837050008370500082A
:1004D00037050008370500084505000845050008F0
:1004E00045050008450500084505000845050008C4
:1004F0001A4B1B68194A43F04003136029E0174B5D
:100500001B68164A43F08003136022E0134B1B68FC
:10051000124A43F4807313601BE0104B1B680F4AB0
:1005200043F40073136014E00C4B1B680B4A43F454
:10053000806313600DE0094B1B68084A43F4000315
:10054000136006E0064B1B68054A43F48073136092
:1005500000BF00BF0C37BD4680BC704700E100E023
:1005600004E100E080B483B000AF0346FB80FB8869
:100570000F2B54D801A252F823F000BFBD0500088C
:10058000CB050008D9050008E7050008F5050008B7
:100590000306000803060008030600080306000817
:1005A00003060008110600081106000811060008DD
:1005B0001106000811060008110600081A4B1B68F6
:1005C000194A43F04003136029E0174B1B68164A91
:1005D00043F08003136022E0134B1B68124A43F47C
:1005E000807313601BE0104B1B680F4A43F40073C9
:1005F000136014E00C4B1B680B4A43F480631360D8
:100600000DE0094B1B68084A43F40003136006E041
:10061000064B1B68054A43F48073136000BF00BF9C
:100620000C37BD4680BC704780E100E084E100E00B
:1006300080B584B000AF78607B681B893B81012363
:10064000BB727B685B6807F108021146184600F030
:100650005AFA7B681B889B089BB2FB737B681B88DC
:10066000DBB203F00303DBB29B00BB735F4AFB7B8F
:10067000023352F82320BB7B0F2101FA03F3DB4343
:1006800018465A49FB7B0240023341F82320574A5F
:10069000FB7B023352F823207B685B6854498B4212
:1006A00016D07B685B6853498B420FD07B685B68D0
:1006B00051498B4208D07B685B6850498B4201D11D
:1006C000032306E0002304E0022302E0012300E00C
:1006D0000023B97B8B4018464449FB7B024302331D
:1006E00041F82320464B9B687A6812881146012204
:1006F0008A40D2431146424A0B409360404BDB682C
:100700007A681288114601228A40D24311463C4A37
:100710000B40D3607B681B7B002B0BD1384B9B6855
:100720007A681288114601228A401146344A0B43E6
:10073000936029E07B681B7B012B0BD1304BDB687E
:100740007A681288114601228A4011462C4A0B43CE
:10075000D36019E07B681B7B022B15D1284B9B686B
:100760007A681288114601228A401146244A0B43B6
:100770009360234BDB687A681288114601228A4015
:1007800011461F4A0B43D3607B681B8819467B6860
:100790001B691C4A42F821307B685B7B012B10D11E
:1007A000174B1B687A681288114601228A4011464D
:1007B000134A0B4313607B681B881846FFF76CFED7
:1007C00010E00F4B1B687A681288114601228A409C
:1007D000D24311460A4A0B4013607B681B881846B7
:1007E000FFF7C0FE00BF1037BD4680BD00000140CE
:1007F00000080140000C01400010014000140140BD
:10080000000401402400002080B582B000AF786071
:100810007868FFF70DFF00BF0837BD4680BD0000B8
:1008200080B500AF054B5B69044A43F00103536197
:10083000034B1B68984700BF80BD00BF0004014008
:100840002400002080B500AF054B5B69044A43F0EB
:1008500002035361034B5B68984700BF80BD00BF34
:10086000000401402400002080B500AF054B5B6907
:10087000044A43F004035361034B9B68984700BF4D
:1008800080BD00BF000401402400002080B500AFFF
:10089000054B5B69044A43F008035361034BDB6873
:1008A000984700BF80BD00BF000401402400002025
:1008B00080B500AF054B5B69044A43F010035361F8
:1008C000034B1B69984700BF80BD00BF0004014077
:1008D0002400002080B500AF264B5B6903F02003A5
:1008E000002B08D0234B5B69224A43F0200353615D
:1008F000214B5B6998471F4B5B6903F04003002B5A
:1009000008D01C4B5B691B4A43F0400353611A4BF0
:100910009B699847174B5B6903F08003002B08D055
:10092000144B5B69134A43F080035361124BDB693C
:100930009847104B5B6903F48073002B08D00D4B74
:100940005B690C4A43F4807353610B4B1B6A9847F5
:10095000084B5B6903F40073002B08D0054B5B69FF
:10096000044A43F400735361034B5B6A984700BF2A
:1009700080BD00BF000401402400002080B500AF0E
:100980002D4B5B6903F48063002B08D02A4B5B6915
:10099000294A43F480635361284B9B6A9847264B4E
:1009A0005B6903F40063002B08D0234B5B69224A88
:1009B00043F400635361214BDB6A98471E4B5B692C
:1009C00003F48053002B08D01B4B5B691A4A43F495
:1009D00080535361194B1B6B9847174B5B6903F4AA
:1009E0000053002B08D0144B5B69134A43F40053A7
:1009F0005361124B5B6B98470F4B5B6903F4804369
:100A0000002B08D00C4B5B690B4A43F480435361C5
:100A10000A4B9B6B9847084B5B6903F40043002B20
:100A200008D0054B5B69044A43F400435361034B10
:100A3000DB6B984700BF80BD00040140240000200C
:100A400080B483B000AF0346FB80FB88802B42D08C
:100A5000802B11DC082B36D0082B06DC022B2ED085
:100A6000042B2ED0012B28D047E0202B2FD0402B59
:100A70002FD0102B29D040E0B3F5006F33D0B3F561
:100A8000006F09DCB3F5007F29D0B3F5806F28D063
:100A9000B3F5807F21D030E0B3F5005F27D0B3F508
:100AA000005F03DCB3F5805F1FD026E0B3F5804F15
:100AB0001FD0B3F5004F1ED01FE000231EE004231B
:100AC0001CE008231AE00C2318E0102316E014237E
:100AD00014E0182312E01C2310E000230EE004238E
:100AE0000CE008230AE00C2308E0102306E014239E
:100AF00004E0182302E01C2300E0002318460C3712
:100B0000BD4680BC704790B585B000AF7860396055
:100B10000023FB600023FB723B681B88FF2B01D87E
:100B20007B6801E07B680433FB603B681B881846E8
:100B3000FFF786FF03461A460F239340DA43FB680C
:100B40001B681A40FB681A603B689B78042B0BD02B
:100B50003B689B78052B07D03B689B78062B03D01E
:100B60003B689B78072B1CD13B689B78043B9B0020
:100B70005AB23B68DB785BB213435BB2DBB203F083
:100B80000F03FB72FC7A3B681B881846FFF758FF7F
:100B9000034604FA03F2FB681B681A43FB681A60F9
:100BA00057E03B689B78002B03D03B689B78012B78
:100BB00015D13B689B789B00DBB203F00F03FB72FF
:100BC000FC7A3B681B881846FFF73AFF034604FA95
:100BD00003F2FB681B681A43FB681A6039E03B6844
:100BE0009B78082B10D10023FB72FC7A3B681B8892
:100BF0001846FFF725FF034604FA03F2FB681B685B
:100C00001A43FB681A6024E00823FB72FC7A3B68F5
:100C10001B881846FFF714FF034604FA03F2FB682B
:100C20001B681A43FB681A603B689B78022B07D14C
:100C30007B68DB683A6812881A437B68DA6008E0F0
:100C40007B68DB683A681288D2431A407B68DA60B6
:100C5000FFE700BF1437BD4690BD80B483B000AF3E
:100C600078600B467B8013463B803B88002B03D08B
:100C70007A887B681A6102E07A887B685A6100BFD3
:100C80000C37BD4680BC704780B483B000AF78603D
:100C90000B467B807A887B68DA6000BF0C37BD46E4
:100CA00080BC704780B485B000AF78600023FB60E3
:100CB0000BE00023BB6002E0BB680133BB60BB6894
:100CC000FE2BF9D9FB680133FB60FA687B689A4216
:100CD000EFD300BF1437BD4680BC704780B500AF6E
:100CE000054B01221A600548FFF7AAFB4FF47A7002
:100CF000FFF7D8FF00BF80BD1C000020300E0008A9
:100D000080B586B000AF194B9B69184A43F00403C5
:100D10009361164B9B69154A43F008039361134B8B
:100D20009B69124A43F001039361FFF72BFBFFF726
:100D3000E7FA0F4A3B1D07CA83E8070000233B740C
:100D40000C4B7B6101237B743B1D1846FFF75CFD58
:100D5000094B01221A60084B1B68002BFBD0FFF7E0
:100D6000CFFA054B00221A60F5E700BF00100240E1
:100D70004C0E0008DD0C00081C0000200D488546C4
:100D8000AFF300800C480D490D4A002302E0D4580F
:100D9000C4500433C4188C42F9D30A4A0A4C0023C5
:100DA00001E013600432A242FBD300F011F8FFF718
:100DB000A7FFFEE700280020000000200000002020
:100DC000600E00080000002060000020FEE7000028
:100DD00070B500250C4E0D4CA41BA410A54209D1E2
:100DE00000F01AF800250A4E0A4CA41BA410A542D4
:100DF00005D170BD56F8253098470135EEE756F815
:100E0000253098470135F2E7580E0008580E0008C3
:100E1000580E00085C0E0008F8B500BFF8BC08BC0E
:100E20009E467047F8B500BFF8BC08BC9E467047A8
:100E3000495251204558544939204953204841507E
:100E400050454E44205F7C2D2E2E000009000000EE
:080E5000000C01400002170034
:040E58005501000838
:040E5C003101000858
:0400000508000D7D65
:00000001FF
