:020000040800F2
:1000000000280020C10200081103000811030008A5
:10001000110300081103000811030008000000008C
:1000200000000000000000000000000011030008B4
:10003000110300080000000011030008110300086C
:100040001103000811030008110300081103000840
:100050001103000811030008110300081103000830
:100060001103000811030008110300081103000820
:100070001103000811030008110300081103000810
:100080001103000811030008110300081103000800
:1000900011030008110300081103000811030008F0
:1000A00011030008110300081103000811030008E0
:1000B00011030008110300081103000811030008D0
:1000C00011030008110300081103000811030008C0
:1000D00011030008110300081103000811030008B0
:1000E00011030008110300080000000011030008BC
:1000F0001103000811030008110300081103000890
:10010000110300081103000811030008110300087F
:10011000110300081103000811030008110300086F
:10012000110300081103000811030008110300085F
:1001300010B5054C237833B9044B13B10448AFF321
:1001400000800123237010BD00000020000000008B
:100150005C03000808B5034B1BB103490348AFF328
:10016000008008BD00000000040000205C030008BF
:1001700080B400AF074B1B68064A43F004031360CA
:10018000044B1B68034A43F00803136000BFBD46DD
:1001900080BC70471810024080B400AF1E4B002294
:1001A0001A601E4B00221A601D4B00221A601B4B66
:1001B0001B681A4A43F040031360184B1B68174A28
:1001C00023F030031360174B1B68164A23F0C0035B
:1001D0001360144B1B68134A43F0100313600E4B5B
:1001E0001B680D4A23F4401313600B4B1B680A4A2B
:1001F00043F4800313600C4B1B680B4A43F48013D9
:100200001360094B1B68084A23F44003136000BFC6
:10021000BD4680BC704700BF040801400008014093
:100220000C080140000C0140040C014080B485B072
:1002300000AF78600023FB600BE00023BB6002E0AE
:10024000BB680133BB60BB68FE2BF9D9FB68013387
:10025000FB60FA687B689A42EFD300BF1437BD4653
:1002600080BC704780B500AFFFF782FFFFF794FFB7
:10027000114B1B6803F00203002B0CD10F4B1B68C2
:100280000E4A83F00203136000BF0B4B1B6803F0A0
:100290000203002BF9D0084B1B685B0B03F0010332
:1002A000012B05D1054B1B68044A83F400531360EE
:1002B0000120FFF7BBFFDBE7080801400C0C014001
:1002C0000D488546AFF300800C480D490D4A0023C8
:1002D00002E0D458C4500433C4188C42F9D30A4AFB
:1002E0000A4C002301E013600432A242FBD300F069
:1002F00011F8FFF7B7FFFEE70028002000000020FC
:10030000000000207C030008000000201C000020EA
:10031000FEE7000070B500250C4E0D4CA41BA41088
:10032000A54209D100F01AF800250A4E0A4CA41B78
:10033000A410A54205D170BD56F825309847013567
:10034000EEE756F8253098470135F2E774030008C8
:10035000740300087403000878030008F8B500BFB0
:10036000F8BC08BC9E467047F8B500BFF8BC08BC96
:040370009E467047EE
:040374005501000827
:040378003101000847
:04000005080002C12C
:00000001FF
