:020000040800F2
:1000000000280020710F0008C10F0008C10F000870
:10001000C10F0008C10F0008C10F00080000000058
:10002000000000000000000000000000C10F0008F8
:10003000C10F000800000000C10F0008C10F000838
:10004000C10F0008C10F0008C10F0008C10F000850
:10005000C10F0008C10F0008AD020008D10200085E
:10006000F5020008190300083D030008C10F00084D
:10007000C10F0008C10F0008C10F0008C10F000820
:10008000C10F0008C10F0008C10F0008C10F000810
:10009000C10F0008C10F0008C10F0008610300086C
:1000A000C10F0008C10F0008C10F0008C10F0008F0
:1000B000C10F0008C10F0008C10F0008110D000892
:1000C0001D0D0008290D0008350D0008CD0D000894
:1000D000290E0008850E0008990E0008AD0E0008D4
:1000E00009040008C10F000800000000C10F00084B
:1000F000C10F0008C10F0008C10F0008C10F0008A0
:10010000C10F0008C10F0008C10F0008C10F00088F
:10011000C10F0008C10F0008C10F0008C10F00087F
:10012000C10F0008C10F0008C10F0008C10F00086F
:1001300010B5054C237833B9044B13B10448AFF321
:1001400000800123237010BD00000020000000008B
:100150000C10000808B5034B1BB103490348AFF36B
:10016000008008BD00000000040000200C10000802
:1001700080B58AB000AF40233B624FF48063FB61DF
:10018000094B7B600023FB6000237B620023BB6084
:10019000064800F0B3FB3B1D1946044800F0A4FAE2
:1001A00000BF2837BD4680BDA08601000054004036
:1001B00080B5C8B002AF07F10C03186007F108035F
:1001C0001960FB1D1A70002387F8173107F10C0323
:1001D0001B681B0ADAB207F114031A7007F10C034B
:1001E0001B68DAB207F114035A70022387F817313B
:1001F00011E097F81731023B07F1080212681A4420
:1002000097F81731117807F11402D15497F8173184
:10021000013387F8173197F81721FB1D1B7802333C
:100220009A42E6DBFB1D1B780233194607F11402E4
:1002300000230193002300930B462A21044800F079
:1002400033FC0023184607F58C77BD4680BD00BF00
:100250000054004080B588B002AFF860B960134622
:10026000FB71FB681B0ADBB23B75FB68DBB27B757D
:1002700007F11402002301930123009302232A2192
:10028000094800F011FCFA7901230193002300933F
:100290001346BA682A21044800F07AFB0023184666
:1002A0001837BD4680BD00BF0054004080B500AF88
:1002B000054B5B69044A43F001035361034B1B6820
:1002C000984700BF80BD00BF0004014070000020BF
:1002D00080B500AF054B5B69044A43F002035361EC
:1002E000034B5B68984700BF80BD00BF000401401E
:1002F0007000002080B500AF054B5B69044A43F0F5
:1003000004035361034B9B68984700BF80BD00BF47
:10031000000401407000002080B500AF054B5B6910
:10032000044A43F008035361034BDB68984700BF5E
:1003300080BD00BF000401407000002080B500AF08
:10034000054B5B69044A43F010035361034B1B697F
:10035000984700BF80BD00BF00040140700000202E
:1003600080B500AF264B5B6903F02003002B08D05B
:10037000234B5B69224A43F020035361214B5B69A5
:1003800098471F4B5B6903F04003002B08D01C4BC0
:100390005B691B4A43F0400353611A4B9B699847C2
:1003A000174B5B6903F08003002B08D0144B5B698B
:1003B000134A43F080035361124BDB699847104B9B
:1003C0005B6903F48073002B08D00D4B5B690C4A0A
:1003D00043F4807353610B4B1B6A9847084B5B696E
:1003E00003F40073002B08D0054B5B69044A43F407
:1003F00000735361034B5B6A984700BF80BD00BF29
:10040000000401407000002080B500AF2D4B5B69F7
:1004100003F48063002B08D02A4B5B69294A43F41C
:1004200080635361284B9B6A9847264B5B6903F4B2
:100430000063002B08D0234B5B69224A43F400631E
:100440005361214BDB6A98471E4B5B6903F4805371
:10045000002B08D01B4B5B691A4A43F4805353614D
:10046000194B1B6B9847174B5B6903F40053002B28
:1004700008D0144B5B69134A43F400535361124B89
:100480005B6B98470F4B5B6903F48043002B08D0EC
:100490000C4B5B690B4A43F4804353610A4B9B6BE3
:1004A0009847084B5B6903F40043002B08D0054BC9
:1004B0005B69044A43F400435361034BDB6B984789
:1004C00000BF80BD000401407000002080B483B0F4
:1004D00000AF0346FB80FB88802B42D0802B11DCD1
:1004E000082B36D0082B06DC022B2ED0042B2ED066
:1004F000012B28D047E0202B2FD0402B2FD0102BC2
:1005000029D040E0B3F5006F33D0B3F5006F09DCBC
:10051000B3F5007F29D0B3F5806F28D0B3F5807F85
:1005200021D030E0B3F5005F27D0B3F5005F03DCE6
:10053000B3F5805F1FD026E0B3F5804F1FD0B3F531
:10054000004F1ED01FE000231EE004231CE0082300
:100550001AE00C2318E0102316E0142314E01823EB
:1005600012E01C2310E000230EE004230CE008231B
:100570000AE00C2308E0102306E0142304E018230B
:1005800002E01C2300E0002318460C37BD4680BC67
:10059000704790B585B000AF786039600023FB608C
:1005A0000023FB723B681B88FF2B01D87B6801E0AE
:1005B0007B680433FB603B681B881846FFF786FFA7
:1005C00003461A460F239340DA43FB681B681A4020
:1005D000FB681A603B689B78042B0BD03B689B78C8
:1005E000052B07D03B689B78062B03D03B689B7894
:1005F000072B1CD13B689B78043B9B005AB23B689D
:10060000DB785BB213435BB2DBB203F00F03FB7228
:10061000FC7A3B681B881846FFF758FF034604FA2C
:1006200003F2FB681B681A43FB681A6057E03B68DB
:100630009B78002B03D03B689B78012B15D13B683E
:100640009B789B00DBB203F00F03FB72FC7A3B68E4
:100650001B881846FFF73AFF034604FA03F2FB68CB
:100660001B681A43FB681A6039E03B689B78082BCB
:1006700010D10023FB72FC7A3B681B881846FFF7F9
:1006800025FF034604FA03F2FB681B681A43FB6864
:100690001A6024E00823FB72FC7A3B681B8818462A
:1006A000FFF714FF034604FA03F2FB681B681A43C2
:1006B000FB681A603B689B78022B07D17B68DB687C
:1006C0003A6812881A437B68DA6008E07B68DB6866
:1006D0003A681288D2431A407B68DA60FFE700BFAD
:1006E0001437BD4690BD0000B0B586B000AF78604D
:1006F00039600023FB820023BB82774B3B610023E0
:10070000FB817B68754A934210D1754A3B68144659
:100710001D460FCD0FC40FCD0FC42B682360714B46
:10072000DB69704A43F40013D36110E06C4B3A6804
:1007300003F1240415460FCD0FC40FCD0FC42B6851
:100740002360684BDB69674A43F48003D3613B68ED
:100750009B68002B7FD17B685B68FB82FB8A23F060
:100760003F03FB8200F01EFB38613B695E4AA2FB3F
:1007700003239B0CBB82FA8ABB8A1343FB82FA8A4F
:100780007B685A607B681B6823F001027B681A60F3
:100790000023FB823B681B684CF25032934204D02A
:1007A0003B681B68514A934212D13B681B685B004F
:1007B0003A69B2FBF3F3FB81FA8AFB891343FB82AC
:1007C000FA8A7B68DA61BB8A01331A467B681A624F
:1007D0007B681B68FB823B689B699AB23B68DB695C
:1007E0009BB213439AB23B689B689BB213439AB285
:1007F0003B685B689BB213439AB2FB8A1343FB824C
:10080000FA8A7B681A600023FB823B689B89012B74
:100810000DD10123FB823B681B8A5B001AB2B7F93A
:10082000163013431BB2FB82FA8A7B68DA6000231E
:10083000FB823B68DB895B001AB2B7F916301343C1
:100840001BB2FB823B685B699AB2FB8A1343FB8253
:10085000FA8A7B689A603B681B6A002B32D07B68FF
:100860004FF480725A607B684FF400725A607B6864
:100870004FF480625A607B68184A93420CD11C4B3B
:100880001B681B4A43F0004313601A4B1B68194A4C
:1008900043F0010313600FE07B68174A93420BD1CA
:1008A000144B1B68134A43F002031360114B1B687F
:1008B000104A43F0040313607B6800225A617B688E
:1008C00000229A617B681B6843F001027B681A6012
:1008D00000BF1837BD46B0BD00127A00005400407A
:1008E0001C0000200010024083DE1B43A086010094
:1008F00000E100E004E100E00058004080B584B071
:1009000000AF78607B681F4A934218D14023BB81B7
:100910000723BB730123FB7307F10C0319461A4825
:10092000FFF737FE8023BB810723BB730123FB73D3
:1009300007F10C0319461448FFF72BFE1DE07B68F6
:10094000124A934219D14FF48063BB810723BB73D2
:100950000123FB7307F10C0319460B48FFF719FE3F
:100960004FF40063BB810723BB730123FB7307F1C3
:100970000C0319460448FFF70CFE00BF1037BD46B4
:1009800080BD00BF00540040000C014000580040F2
:1009900080B586B000AFF8607A603B600B467B8123
:1009A00000237B61FB68304A934214BF012300237C
:1009B000DBB2FB7497F824301A460121F86800F086
:1009C000C9F800BF0121F86800F026F90346002BA2
:1009D000F8D07B8901221946F86800F0E2F800BFE0
:1009E0000221F86800F018F90346002BF8D03B68A4
:1009F000002B1CD03B687B6112E000BF0321F8682C
:100A000000F00AF90346002BF8D0FB681B69DAB244
:100A10007B681A707B6801337B607B69013B7B617B
:100A20007B69012BE9DC0021F86800F021F897F8D8
:100A30002030002B03D10121F86800F0D1F8FA7CB6
:100A40000A491346DB0013449B000B4418331B6810
:100A5000B3F5806F03D10121F86800F009F800BFF9
:100A60001837BD4680BD00BF005400401C00002068
:100A700080B483B000AF78600B46FB70FB78012B2D
:100A800006D17B681B6843F480627B681A6005E0CE
:100A90007B681B6823F480627B681A6000BF0C3798
:100AA000BD4680BC7047000080B586B000AFF860DE
:100AB0007A603B600B467B8100237B6197F8243092
:100AC0001A460121F86800F045F800BF0121F868D6
:100AD00000F0A2F80346002BF8D07B8900221946CB
:100AE000F86800F05EF800BF0221F86800F094F8A2
:100AF0000346002BF8D000BF1549F86800F08CF8C9
:100B00000346002BF8D000237B6111E07B697A68F3
:100B100013441B781A46FB681A6100BF0521F86868
:100B200000F07AF80346002BF8D07B6901337B6133
:100B30007B693A689A42E9D897F82030002B03D1B4
:100B40000121F86800F04CF800BF1837BD4680BDA1
:100B50008000070080B582B000AF78600B46FB7064
:100B60001346BB70BB78012B07D000BF002178680B
:100B700000F052F80346002BF8D1FB78002B06D08A
:100B80007B681B6843F480727B681A6005E07B68B1
:100B90001B6823F480727B681A6000BF0837BD466B
:100BA00080BD80B483B000AF78600B467B80134675
:100BB0007B707B885B007B807B78002B04D07B88FC
:100BC00043F001037B8003E07B8823F001037B80FB
:100BD0007A887B681A6100BF0C37BD4680BC7047BD
:100BE00080B483B000AF78600B46FB70FB78002BBD
:100BF00006D07B681B6843F400727B681A6005E0CE
:100C00007B681B6823F400727B681A6000BF0C3796
:100C1000BD4680BC7047000080B489B000AF7860EA
:100C200039600023FB770023BB6100237B61002335
:100C30003B613B68032B57D0032B04D8012B14D006
:100C4000012B1ED805E0052B42D9304A934224D00F
:100C500056E07B689B6903F00203002B02D001235E
:100C6000FB774DE00023FB774AE07B685B6903F08C
:100C70000103002B02D00123FB7741E00023FB7727
:100C80003EE07B685B6903F00203002B02D0012386
:100C9000FB7735E00023FB7732E07B685B69BB6163
:100CA0007B689B697B617B691B047B61BA697B699B
:100CB000134323F07F433B613A693B6813403A6832
:100CC0009A4202D10123FB771AE00023FB7717E059
:100CD0007B685B6903F08003002B02D00123FB7764
:100CE0000EE00023FB770BE07B685B6903F04003B9
:100CF000002B02D00123FB7701E00023FB7700BF2C
:100D0000FB7F18462437BD4680BC70478000070033
:100D100080B400AF00BFBD4680BC704780B400AF58
:100D200000BFBD4680BC704780B400AF00BFBD4669
:100D300080BC704780B400AF00BFBD4680BC704728
:100D400080B400AF0A4B5B689B0803F00303012BE0
:100D500006D0012B02D3022B04D005E0054B03E0A3
:100D6000054B01E0044BFFE71846BD4680BC7047C9
:100D70000010024000127A000024F40080B500AF99
:100D8000FFF7DEFF0146054B5B681B0903F00F030D
:100D9000034AD35C21FA03F3184680BD00100240D9
:100DA0003410000880B500AFFFF7E8FF0146054B9F
:100DB0005B681B0A03F00703034AD35C21FA03F3C1
:100DC000184680BD001002402C10000880B582B08B
:100DD00000AF134B9B685B0803F00103DAB23B7969
:100DE00062F300033B710E4B9B6803F00103DAB220
:100DF0003B7962F341033B71094B9B681B0903F08C
:100E00000103DAB23B7962F382033B71054B1B6845
:100E10005B693879984700BF0837BD4680BD00BF81
:100E2000003001406400002080B582B000AF134B59
:100E30009B685B0803F00103DAB23B7962F30003BD
:100E40003B710E4B9B6803F00103DAB23B7962F30E
:100E500041033B71094B9B681B0903F00103DAB2A4
:100E60003B7962F382033B71054B5B685B693879C0
:100E7000984700BF0837BD4680BD00BF003800401E
:100E80006400002080B500AF024B1B681B699847C7
:100E900000BF80BD6C00002080B500AF024B1B6816
:100EA0001B69984700BF80BD6C00002080B500AF73
:100EB000024B1B681B69984700BF80BD6C00002077
:100EC00080B400AF0A4B9B69094A43F00403936165
:100ED000074B9B69064A43F008039361044B9B69E7
:100EE000034A43F00103936100BFBD4680BC7047D5
:100EF0000010024080B584B000AFFFF7E1FF1B4A4D
:100F000007F1080392E803001860043319800233E4
:100F10000A0C1A703B4600221A60C3F80320FFF740
:100F200027F907F1080307221946AF20FFF740F918
:100F30003B4607221946AF20FFF78CF90A233B7284
:100F40000B237B720C23BB720D23FB7207F108038A
:100F50000422194640F6FF70FFF72AF93B460422A7
:100F6000194640F6FF70FFF775F9FEE724100008F8
:100F70000D488546AFF300800C480D490D4A00230B
:100F800002E0D458C4500433C4188C42F9D30A4A3E
:100F90000A4C002301E013600432A242FBD300F0AC
:100FA00011F8FFF7A7FFFEE700280020000000204F
:100FB000000000204C10000800000020AC000020C1
:100FC000FEE7000070B500250C4E0D4CA41BA410CC
:100FD000A54209D100F01AF800250A4E0A4CA41BBC
:100FE000A410A54205D170BD56F8253098470135AB
:100FF000EEE756F8253098470135F2E7441000082F
:10100000441000084410000848100008F8B500BF5C
:10101000F8BC08BC9E467047F8B500BFF8BC08BCD9
:041020009E46704731
:101024000102030405060700000000000102030496
:101034000000000000000000010203040506070888
:04104400550100084A
:04104800310100086A
:0400000508000F716F
:00000001FF
