:020000040800F2
:1000000000280020511F0008A11F0008A11F0008A0
:10001000A11F0008A11F0008A11F00080000000088
:10002000000000000000000000000000A11F000808
:10003000A11F000800000000A11F0008A11F000868
:10004000A11F0008A11F0008A11F0008A11F000890
:10005000A11F0008A11F0008A90C0008CD0C000872
:10006000F10C0008150D0008390D0008A11F00084B
:10007000A11F0008A11F0008A11F0008A11F000860
:10008000A11F0008A11F0008A11F0008A11F000850
:10009000A11F0008A11F0008A11F00085D0D000896
:1000A000A11F0008A11F0008A11F0008A11F000830
:1000B000A11F0008A11F0008A11F0008411100088E
:1000C0004D11000859110008651100082912000897
:1000D0008512000855180008691800087D180008E6
:1000E000050E0008A11F000800000000A11F000865
:1000F000A11F0008A11F0008A11F0008A11F0008E0
:10010000A11F0008A11F0008A11F0008A11F0008CF
:10011000A11F0008A11F0008A11F0008A11F0008BF
:10012000A11F0008A11F0008A11F0008A11F0008AF
:1001300010B5054C237833B9044B13B10448AFF321
:1001400000800123237010BD3C000020000000004F
:10015000EC1F000808B5034B1BB103490348AFF37C
:10016000008008BD0000000040000020EC1F0008D7
:1001700080B582B000AF0123BB800223BB713B1D61
:100180001946214800F003FF0223BB800223BB7104
:100190003B1D19461C4800F0FAFE0823BB800223D1
:1001A000BB713B1D1946184800F0F1FE1023BB80BF
:1001B0000223BB713B1D1946134800F0E8FE2023C3
:1001C000BB800423BB710123FB713B1D19460E4804
:1001D00000F0DDFE4023BB800423BB710123FB71D3
:1001E0003B1D1946084800F0D2FE8023BB80042343
:1001F000BB710123FB713B1D1946034800F0C7FE8C
:1002000000BF0837BD4680BD000C014080B500AF7F
:100210002021434800F075FF414800F04EFF03469F
:1002200003F00103002B01D02A2376E03C4800F0C4
:1002300044FF034603F00203002B01D037236CE098
:10024000374800F03AFF034603F00803002B01D0C3
:10025000342362E0324800F030FF034603F010031D
:10026000002B01D0312358E040212D4800F049FFF8
:100270002B4800F022FF034603F00103002B01D0BE
:1002800030234AE0264800F018FF034603F002033B
:10029000002B01D0382340E0214800F00EFF034638
:1002A00003F00803002B01D0352336E01C4800F092
:1002B00004FF034603F01003002B01D032232CE08F
:1002C0008021174800F01DFF154800F0F6FE034698
:1002D00003F00103002B01D023231EE0104800F09F
:1002E000ECFE034603F00203002B01D0392314E097
:1002F0000B4800F0E2FE034603F00803002B01D098
:1003000036230AE0064800F0D8FE034603F0100347
:10031000002B01D0332300E04E23184680BD00BFE0
:10032000000C014080B485B000AF78600023FB6012
:100330000BE00023BB6002E0BB680133BB60BB681D
:10034000FE2BF9D9FB680133FB60FA687B689A429F
:10035000EFD300BF1437BD4680BC704780B584B072
:1003600000AF78600A2000F0F7FF7B68864A93426E
:100370005DD10423FB6014E0844AFB6832F813204B
:10038000834B1A80824B04229A70814B0122DA70CF
:100390007D4B1B687E49184600F0F9FDFB68013370
:1003A000FB60FB68072BE7DD774B1A8A784B1A80D6
:1003B000774B04229A70764B0122DA70724B9B685D
:1003C0007349184600F0E3FD6F4B5A8A704B1A8050
:1003D0006F4B04229A706E4B0122DA706A4B9B6855
:1003E0006B49184600F0D3FD674BD868664B1B8AF3
:1003F0000022194600F06EFE634BD868624B5B8AA0
:100400000022194600F066FE30215F4800F02CFA09
:100410000A20FFF787FF30215B4800F025FA012012
:10042000FFF780FF3021584800F01EFA60E07B683B
:10043000584A93425CD10423FB6014E0534AFB68A2
:1004400032F81320524B1A80514B04229A70504BB1
:100450000122DA704F4B1B684D49184600F097FD9A
:10046000FB680133FB60FB68072BE7DD494B1A8A09
:10047000474B1A80464B04229A70454B0122DA7092
:10048000444B9B684249184600F081FD414B5A8A13
:100490003F4B1A803E4B04229A703D4B0122DA708A
:1004A0003C4B9B683A49184600F071FD394BD868BF
:1004B000384B1B8A0022194600F00CFE354BD868D9
:1004C000344B5B8A0022194600F004FE302131488B
:1004D00000F0CAF90A20FFF725FF30212D4800F06F
:1004E000C3F90120FFF71EFF30212A4800F0BCF9B4
:1004F0007B68254A93420CD10221234800F0B4F9CD
:100500002821214800F0B0F908211F4800F0ACF97B
:100510000FE07B681F4A93420BD102211D4800F077
:10052000A3F928211B4800F09FF90821194800F081
:100530009BF97B68144A93420FD10821124800F0BE
:1005400093F9114800F002FB06210F4800F08CF9E6
:100550000F210D4800F088F912E07B680D4A9342A4
:100560000ED108210B4800F07FF90A4800F0EEFA9E
:100570000621084800F078F90F21064800F074F9C8
:1005800000BF1037BD4680BD1400002000000020D1
:10059000740000202800002080B582B000AF786091
:1005A0007B68194A934213D1174BD868164B5B8A64
:1005B0000122194600F08EFD022000F0CDFE124B04
:1005C000D868114B5B8A0022194600F083FD16E0C3
:1005D0007B680E4A934212D10C4BD8680B4B5B8A56
:1005E0000122194600F076FD022000F0B5FE074B0F
:1005F000D868064B5B8A0022194600F06BFD00BFED
:100600000837BD4680BD00BF140000202800002030
:1006100090B587B000AF78600B46FB70022000F009
:100620009BFE7B685C4A934257D15B4BD8685A4B20
:100630001B8A0122194600F04DFDFB7823F00F03C1
:10064000BB7304237B6116E0534B5868534A7B69A4
:1006500032F81340BA7B01217B6901FA03F31A4097
:100660007B6942FA03F39BB21A46214600F032FD41
:100670007B6901337B617B69072BE5DD4648FFF72A
:100680008BFF454BD868444B1B8A0122194600F06A
:1006900021FDFB781B01BB7304237B6116E03E4BFD
:1006A00058683E4A7B6932F81340BA7B01217B6966
:1006B00001FA03F31A407B6942FA03F39BB21A462C
:1006C000214600F007FD7B6901337B617B69072BC5
:1006D000E5DD3148FFF760FF5AE07B68304A93421E
:1006E00056D12F4BD8682E4B1B8A0122194600F099
:1006F000F1FCFB7823F00F03FB7304233B6116E04E
:10070000274B5868254A3B6932F81340FA7B012190
:100710003B6901FA03F31A403B6942FA03F39BB2C7
:100720001A46214600F0D6FC3B6901333B613B6928
:10073000072BE5DD1A48FFF72FFF194BD868184B38
:100740001B8A0122194600F0C5FCFB781B01FB73D4
:1007500004233B6116E0124B5868104A3B6932F89B
:100760001340FA7B01213B6901FA03F31A403B690C
:1007700042FA03F39BB21A46214600F0ABFC3B69F8
:1007800001333B613B69072BE5DD0548FFF704FFBB
:1007900000BF1C37BD4690BD1400002000000020A3
:1007A0002800002080B584B000AF78603960002355
:1007B000FB600023BB604BE07B68294A934220D159
:1007C000FB680133FB60FB68112B05D1002202217D
:1007D000234800F013F90DE0FB68202B0ADD01210E
:1007E0001F4800F041F8002201211D4800F006F9E1
:1007F0000023FB603B681B7819461948FFF708FF88
:1008000023E07B68174A93421FD1BB680133BB606A
:10081000BB68112B05D100220221124800F0EEF82E
:100820000DE0BB68202B0ADD01210E4800F01CF80A
:10083000002201210B4800F0E1F80023BB603B6877
:100840001B7819460748FFF7E3FE3B6801333B601E
:100850003B681B78002BAFD100BF1037BD4680BD71
:10086000140000202800002090B585B000AF78600B
:100870000B46FB70022000F06FFD7B685C4A9342E0
:1008800057D15B4BD8685A4B1B8A0022194600F09F
:1008900021FCFB7823F00F03BB720423FB6016E0FE
:1008A000534B5868534AFB6832F81340BA7A012117
:1008B000FB6801FA03F31A40FB6842FA03F39BB2A8
:1008C0001A46214600F006FCFB680133FB60FB681A
:1008D000072BE5DD4648FFF75FFE454BD868444BE4
:1008E0001B8A0022194600F0F5FBFB781B01BB7246
:1008F0000423FB6016E03E4B58683E4AFB6832F822
:100900001340BA7A0121FB6801FA03F31A40FB682D
:1009100042FA03F39BB21A46214600F0DBFBFB6868
:100920000133FB60FB68072BE5DD3148FFF734FE40
:100930005AE07B68304A934256D12F4BD8682E4BF1
:100940001B8A0022194600F0C5FBFB7823F00F0339
:10095000FB720423FB6016E0274B5868254AFB68AE
:1009600032F81340FA7A0121FB6801FA03F31A40C6
:10097000FB6842FA03F39BB21A46214600F0AAFB39
:10098000FB680133FB60FB68072BE5DD1A48FFF7C6
:1009900003FE194BD868184B1B8A0022194600F039
:1009A00099FBFB781B01FB720423FB6016E0124BE2
:1009B0005868104AFB6832F81340FA7A0121FB6844
:1009C00001FA03F31A40FB6842FA03F39BB21A469A
:1009D000214600F07FFBFB680133FB60FB68072BBF
:1009E000E5DD0548FFF7D8FD00BF1437BD4690BDD3
:1009F00014000020000000202800002080B584B0F2
:100A000000AFF860B9607A60FB684E4A934249D102
:100A1000BB68012B10D17B68002BC0F28E807B68F5
:100A20000F2B00F38A807B68DBB2803BDBB2194678
:100A30004448FFF719FF80E0BB68022B0ED17B68AA
:100A4000002B7ADB7B680F2B77DC7B68DBB2403BCB
:100A5000DBB219463B48FFF707FF6EE0BB68032B8C
:100A60000ED17B68002B68DB7B680F2B65DC7B6815
:100A7000DBB2703BDBB219463248FFF7F5FE5CE0B3
:100A8000BB68042B59D17B68002B56DB7B680F2B8E
:100A900053DC7B68DBB2303BDBB219462948FFF7F9
:100AA000E3FE4AE0FB68284A934246D1BB68012B2B
:100AB0000ED17B68002B40DB7B680F2B3DDC7B6815
:100AC000DBB2803BDBB219461F48FFF7CDFE34E0B6
:100AD000BB68022B0ED17B68002B2EDB7B680F2BB3
:100AE0002BDC7B68DBB2403BDBB219461648FFF7D4
:100AF000BBFE22E0BB68032B0ED17B68002B1CDB06
:100B00007B680F2B19DC7B68DBB2703BDBB21946CC
:100B10000D48FFF7A9FE10E0BB68042B0DD17B68E0
:100B2000002B0ADB7B680F2B07DC7B68DBB2303BDA
:100B3000DBB219460448FFF797FE00BF1037BD46E9
:100B400080BD00BF140000202800002080B582B0C6
:100B500000AF78607B680A4A934204D101210848BB
:100B6000FFF782FE07E07B68064A934203D101212A
:100B70000448FFF779FE00BF0837BD4680BD00BFBF
:100B8000140000202800002080B582B000AF4FF490
:100B90008073BB800423BB710123FB713B1D19468D
:100BA000034800F0F4F900BF0837BD4680BD00BF20
:100BB000000C014080B582B000AF0346FB71FB79A9
:100BC000012B0FD101224FF48071124800F082FAFC
:100BD0004FF4FA7000F0ACFB00224FF480710D4826
:100BE00000F078FAFB79022B0FD101224FF48071CB
:100BF000084800F06FFA4FF4BA6000F099FB002249
:100C00004FF48071034800F065FA00BF0837BD4615
:100C100080BD00BF000C014080B582B000AF4FF432
:100C20000073BB800423BB710123FB713B1D19467C
:100C3000034800F0ACF900BF0837BD4680BD00BFD7
:100C4000000C014080B584B000AF0346FB71FB7916
:100C5000012B0FD101224FF40071124800F03AFA33
:100C60004FF4FA7000F064FB00224FF400710D485D
:100C700000F030FAFB79022B0FD101224FF4007102
:100C8000084800F027FA4FF4BA6000F051FB002248
:100C90004FF40071034800F01DFA00BF1037BD4645
:100CA00080BD00BF000C014080B500AF054B5B6903
:100CB000044A43F001035361034B1B68984700BF8C
:100CC00080BD00BF000401407800002080B500AF67
:100CD000054B5B69044A43F002035361034B5B68B5
:100CE000984700BF80BD00BF00040140780000208D
:100CF00080B500AF054B5B69044A43F004035361C0
:100D0000034B9B68984700BF80BD00BF00040140B3
:100D10007800002080B500AF054B5B69044A43F0C2
:100D200008035361034BDB68984700BF80BD00BFD9
:100D3000000401407800002080B500AF054B5B69DE
:100D4000044A43F010035361034B1B69984700BFEB
:100D500080BD00BF000401407800002080B500AFD6
:100D6000264B5B6903F02003002B08D0234B5B6903
:100D7000224A43F020035361214B5B6998471F4B84
:100D80005B6903F04003002B08D01C4B5B691B4AD6
:100D900043F0400353611A4B9B699847174B5B69BB
:100DA00003F08003002B08D0144B5B69134A43F017
:100DB00080035361124BDB699847104B5B6903F466
:100DC0008073002B08D00D4B5B690C4A43F4807391
:100DD00053610B4B1B6A9847084B5B6903F4007324
:100DE000002B08D0054B5B69044A43F40073536140
:100DF000034B5B6A984700BF80BD00BF0004014001
:100E00007800002080B500AF2D4B5B6903F4806350
:100E1000002B08D02A4B5B69294A43F48063536155
:100E2000284B9B6A9847264B5B6903F40063002BB1
:100E300008D0234B5B69224A43F400635361214B82
:100E4000DB6A98471E4B5B6903F48053002B08D084
:100E50001B4B5B691A4A43F480535361194B1B6B5C
:100E60009847174B5B6903F40053002B08D0144BD1
:100E70005B69134A43F400535361124B5B6B984711
:100E80000F4B5B6903F48043002B08D00C4B5B696C
:100E90000B4A43F4804353610A4B9B6B9847084BC2
:100EA0005B6903F40043002B08D0054B5B69044ADF
:100EB00043F400435361034BDB6B984700BF80BD95
:100EC000000401407800002080B483B000AF0346E6
:100ED000FB80FB88802B42D0802B11DC082B36D086
:100EE000082B06DC022B2ED0042B2ED0012B28D071
:100EF00047E0202B2FD0402B2FD0102B29D040E0C3
:100F0000B3F5006F33D0B3F5006F09DCB3F5007FA4
:100F100029D0B3F5806F28D0B3F5807F21D030E0A1
:100F2000B3F5005F27D0B3F5005F03DCB3F5805F56
:100F30001FD026E0B3F5804F1FD0B3F5004F1ED071
:100F40001FE000231EE004231CE008231AE00C230A
:100F500018E0102316E0142314E0182312E01C23D9
:100F600010E000230EE004230CE008230AE00C2329
:100F700008E0102306E0142304E0182302E01C23F9
:100F800000E0002318460C37BD4680BC704790B582
:100F900085B000AF786039600023BB600023FB732D
:100FA0003B681B88FF2B01D87B6801E07B6804331A
:100FB000BB603B681B881846FFF786FF03461A464E
:100FC0000F239340DA43BB681B681A40BB681A6062
:100FD0003B689B78042B0BD03B689B78052B07D094
:100FE0003B689B78062B03D03B689B78072B0ED180
:100FF0003B689B78043B9B005AB23B68DB785BB252
:1010000013435BB2DBB203F00F03FB732CE03B68CE
:101010009B78002B03D03B689B78012B07D13B6862
:101020009B789B00DBB203F00F03FB731CE03B6873
:101030009B78082B02D10023FB7315E00823FB7378
:101040003B689B78022B07D17B68DB683A68128883
:101050001A437B68DA6007E07B68DB683A681288CD
:10106000D2431A407B68DA60FC7B3B681B881846D9
:10107000FFF72AFF034604FA03F2BB681B681A4312
:10108000BB681A6000BF1437BD4690BD80B485B000
:1010900000AF78600B467B807B689A687B88134042
:1010A000002B02D00123FB7301E00023FB73FB7BC9
:1010B00018461437BD4680BC704780B485B000AF79
:1010C00078607B689B68FB81FB8918461437BD46B6
:1010D00080BC704780B483B000AF78600B467B80E3
:1010E00013463B803B88002B03D07A887B681A61CB
:1010F00002E07A887B685A6100BF0C37BD4680BC2D
:10110000704780B483B000AF78600B467B807A88EC
:101110007B68DA6000BF0C37BD4680BC704780B486
:1011200083B000AF78600B467B807B68DA687B8891
:101130005A407B68DA6000BF0C37BD4680BC704700
:1011400080B400AF00BFBD4680BC704780B400AF24
:1011500000BFBD4680BC704780B400AF00BFBD4635
:1011600080BC704780B400AF00BFBD4680BC7047F4
:1011700080B400AF0B4B5B689B0803F00303012BAB
:1011800006D0012B02D3022B04D005E0064B04E06D
:10119000064B02E0054B00E000231846BD4680BC2C
:1011A000704700BF0010024000127A000024F400D3
:1011B00080B500AFFFF7DCFF0146054B5B68DB093C
:1011C00003F00F03034AD35C21FA03F3184680BDF2
:1011D000001002401421000880B500AFFFF7E8FFBF
:1011E0000146054B5B681B0A03F00703034AD35C07
:1011F00021FA03F3184680BD001002400C210008BC
:1012000080B500AFFFF7D4FF0146054B5B68DB0AF2
:1012100003F00703034AD35C21FA03F3184680BDA9
:10122000001002400C21000880B582B000AF134BC3
:101230009B685B0803F00103DAB23B7962F30003B9
:101240003B710E4B9B6803F00103DAB23B7962F30A
:1012500041033B71094B9B681B0903F00103DAB2A0
:101260003B7962F382033B71054B1B685B693879FC
:10127000984700BF0837BD4680BD00BF0030014021
:101280005800002080B582B000AF134B9B685B080C
:1012900003F00103DAB23B7962F300033B710E4BBA
:1012A0009B6803F00103DAB23B7962F341033B71BF
:1012B000094B9B681B0903F00103DAB23B7962F327
:1012C00082033B71054B5B685B693879984700BFC7
:1012D0000837BD4680BD00BF0038004058000020E0
:1012E00080B400AF0E4B1B680D4A43F0010313603E
:1012F0000C4B07221A600C4B4CF250321A604FF024
:1013000080431B684FF0804243F00103136000BF2D
:10131000064B1B68002BFBD000BFBD4680BC70474E
:101320001C100240280000402C000040100000402B
:1013300080B483B000AF7860064B00221A6000BF13
:10134000044B1A687B689A42FAD300BF0C37BD463B
:1013500080BC70472400004080B584B000AF786046
:101360000023FB600023FB6006E04FF47A70FFF778
:10137000DFFFFB680133FB60FA687B689A42F4DBAD
:1013800000BF1037BD4680BD80B584B000AF786027
:1013900039607B68594A934209D1594B9B69584A35
:1013A00043F480439361574A3B6813601AE07B68BB
:1013B000554A934209D1524BDB69514A43F40033F9
:1013C000D361504A3B6853600CE07B684F4A9342BC
:1013D00008D14B4BDB694A4A43F48023D361494A25
:1013E0003B6893607B68DB6843F400527B68DA609B
:1013F0007B68DB683A6812881A437B68DA607B682E
:10140000DB683A6812891A437B68DA607B68DB68BC
:101410003A6852891A437B68DA607B681B693A68CC
:1014200092891A437B681A617B685B693A68D28942
:101430001A437B685A617B68304A934203D1FFF7B5
:10144000DFFEF86002E0FFF7C7FEF8603B685B680C
:101450001B01FA68B2FBF3F31901FA6813469B000B
:1014600013449A001A443B685B689B00B2FBF3F29A
:101470003B685B681B01F868B0FBF3F3642000FB7A
:1014800003F3D31A1B01224AA2FB03235B0903F0D7
:101490000F030B43BB607B68BA689A603B681B7C98
:1014A000002B26D07B68DB683A68127C1A437B6885
:1014B000DA607B68114A934206D1164B1B68154AC5
:1014C00043F02003136014E07B680F4A934206D177
:1014D000104B1B680F4A43F04003136009E07B6820
:1014E0000A4A934205D10B4B1B680A4A43F080031A
:1014F000136000BF1037BD4680BD00BF00380140FB
:1015000000100240600000200044004000480040FD
:101510001F85EB5104E100E080B483B000AF786038
:101520007B680B4A934201D100230CE07B68094A97
:10153000934201D1012306E07B68074A934201D11F
:10154000032300E0042318460C37BD4680BC7047D7
:1015500000380140004400400048004080B584B09D
:1015600000AF78607B68754A93424AD14FF40073AC
:10157000BB810623BB730123FB7307F10C031946E0
:101580006F48FFF704FD4FF48063BB810123BB73F9
:1015900007F10C0319466A48FFF7F9FC694B1B6811
:1015A000DB89B3F5007F05D0664B1B68DB89B3F59B
:1015B000407F0BD14FF40063BB810123BB7307F164
:1015C0000C0319465E48FFF7E2FCB2E05D4B1B6876
:1015D000DB89B3F5807F06D05A4B1B68DB89B3F5F6
:1015E000407F40F0A6804FF48053BB810623BB733D
:1015F0000123FB7307F10C0319465148FFF7C7FCA1
:1016000097E07B68504A934245D10423BB8106236F
:10161000BB730123FB7307F10C0319464848FFF71E
:10162000B6FC0823BB810123BB7307F10C031946E9
:101630004348FFF7ACFC434B5B68DB89B3F5007FA5
:1016400005D0404B5B68DB89B3F5407F0AD10123AD
:10165000BB810123BB7307F10C0319463848FFF720
:1016600096FC66E0374B5B68DB89B3F5807F05D07D
:10167000344B5B68DB89B3F5407F5AD10223BB81D1
:101680000623BB730123FB7307F10C0319462C4897
:10169000FFF77DFC4DE07B682C4A934249D14FF423
:1016A0008063BB810623BB730123FB7307F10C032B
:1016B00019462748FFF76BFC4FF40063BB810123F9
:1016C000BB7307F10C0319462148FFF760FC1D4B63
:1016D0009B68DB89B3F5007F05D01A4B9B68DB89DB
:1016E000B3F5407F0BD14FF40053BB810123BB7393
:1016F00007F10C0319461648FFF749FC19E0114B96
:101700009B68DB89B3F5807F05D00E4B9B68DB8936
:10171000B3F5407F0DD14FF48043BB810623BB73EB
:101720000123FB7307F10C0319460948FFF72FFC4F
:10173000FFE700BF1037BD4680BD00BF0038014045
:1017400000080140600000200044004000480040C4
:10175000000C014080B586B000AFF860B960134658
:10176000FB71FB79012B06D100BFFB681B6803F0FE
:101770008003002BF9D0F868FFF7CEFE0346FB7517
:10178000FB7D0B4A52F823301B89B3F5805F06D1ED
:10179000BB681B88C3F30802FB685A6004E0BB689F
:1017A0001B88DAB2FB685A6000BF1837BD4680BD9F
:1017B0006000002080B586B000AFF860B9601346C5
:1017C000FB71FB79012B06D100BFFB681B6803F09E
:1017D0002003002BF9D0F868FFF79EFE0346FB7547
:1017E000FB7D1B4A52F823301B89B3F5805F14D16F
:1017F000FB7D174A52F823305B89002B05D1FB682B
:101800005B689AB2BB681A801EE0FB685B689BB29B
:10181000DBB29AB2BB681A8016E0FB7D0C4A52F824
:1018200023305B89002B07D1FB685B689BB2DBB27E
:101830009AB2BB681A8007E0FB685B689BB203F052
:101840007F039AB2BB681A8000BF1837BD4680BDBF
:101850006000002080B500AF024B1B685B699847B1
:1018600000BF80BD6000002080B500AF024B5B6808
:101870005B69984700BF80BD6000002080B500AF65
:10188000024B9B685B69984700BF80BD60000020E9
:1018900080B400AF0A4B9B69094A43F0040393618B
:1018A000074B9B69064A43F008039361044B9B690D
:1018B000034A43F00103936100BFBD4680BC7047FB
:1018C0000010024080B500AF002205490548FFF72F
:1018D00071FF012202490348FFF73CFF00BF80BDB2
:1018E000B40000200038014080B500AF0022054957
:1018F0000548FFF75FFF012202490348FFF72AFF6F
:1019000000BF80BDB60000200044004080B58EB00E
:1019100000AFFFF7BDFFFEF72BFCFFF7E1FCFFF781
:1019200033F9FFF779F94FF4E1333B6200237B850C
:10193000202387F82C30B24B3B630023FB84002329
:10194000BB8400233B850C23BB8307F11C03194692
:10195000AC48FFF719FDAB48FFF700FE4FF4E13349
:10196000BB6000237B8220233B75A74BBB61002318
:10197000FB810023BB8100233B820C23BB803B1DEA
:101980001946A248FFF700FDA048FFF7E7FDA04871
:10199000FEF7E4FC9F48FEF7E1FC00F0C5F900F01B
:1019A000E3F900F007FA00237B6300F07BF9C8201D
:1019B000FFF7D2FC00F096F9974B1B78302B1BD920
:1019C000002202219348FFF719F894499148FEF745
:1019D000E9FE002203218F48FFF710F890498D4857
:1019E000FEF7E0FE00BF8F4B1B88002B19D18E4BFA
:1019F0001B88002BF7D014E08648FFF7A7F80022D9
:101A000000218448FEF7FAFF88498248FEF7CAFEA3
:101A1000002202217F48FEF7F1FF85497D48FEF74D
:101A2000C1FE00237B6317E0824A7B6B13441B7863
:101A30009AB27C4B1B889A4208D07E4A7B6B134437
:101A40001B789AB2784B1B889A4202D17A4B0122BA
:101A50001A707B6B01337B637B6B022BE4DD764B6F
:101A60001B78012B50D16F4B1B88002B4CD06A4B3D
:101A70001B78302B48D96748FFF768F8032202210A
:101A80006448FEF7BBFF6D496248FEF78BFE0022FB
:101A900003216048FEF7B2FF69495E48FEF782FE07
:101AA00000224FF400616748FFF714FB0120FFF7A5
:101AB00081F8594B1B78013BDAB2574B1A70594BDE
:101AC00000221A805C4B00221A704FF49670FFF7C8
:101AD00043FC02E0C820FFF73FFC80215948FFF794
:101AE000D5FA0346012BF5D001224FF40061554889
:101AF000FFF7F0FA0220FFF75DF800F0D3F8C820F6
:101B0000FFF72AFC00F0EEF84B4B1B78012B50D16D
:101B1000454B1B88002B4CD03F4B1B78322B48D8B1
:101B20003C48FFF713F8032202213A48FEF766FF0C
:101B300045493848FEF736FE002203213548FEF7B6
:101B40005DFF42493348FEF72DFE00224FF400614D
:101B50003C48FFF7BFFA0120FFF774F82E4B1B78C3
:101B60000133DAB22C4B1A704FF49670FFF7F4FB86
:101B700002E0C820FFF7F0FB02213248FFF786FAA7
:101B80000346012BF5D001224FF400612D48FFF7E9
:101B9000A1FA0220FFF756F8234B00221A80264BA9
:101BA00000221A7000F07EF8C820FFF7D5FB00F085
:101BB00099F8214B1B78002B7FF4FEAE194B1B8844
:101BC000002B04D1184B1B88002B3FF4F5AE1148B5
:101BD000FEF7BCFF002200210E48FEF70FFF1C4954
:101BE0000C48FEF7DFFD032202210A48FEF706FF3C
:101BF00018490848FEF7D6FD00237B6336E000BF96
:101C0000C518000800380140E918000800440040E9
:101C100014000020280000201000002004200008EC
:101C200014200008B4000020B60000202420000882
:101C3000342000086C0000206F00002048200008BD
:101C400054200008000801406820000874200008A3
:101C5000842000089020000801210F48FFF75FFA58
:101C60009620FFF779FB7B6B01337B637B6B022B49
:101C7000F2DD012201210848FFF72CFA00F012F8EA
:101C80009620FFF769FB00F02DF8044B00221A8024
:101C9000034B00221A808FE600080140B6000020A6
:101CA000B400002080B500AF0B48FEF74FFF0122C3
:101CB00001210948FEF7A2FE08490748FEF772FD18
:101CC000002202210448FEF799FE05490248FEF76A
:101CD00069FD00BF80BD00BF280000209C200008D7
:101CE000A820000880B500AF0C48FEF72FFF0022A7
:101CF00000210A48FEF782FE09490848FEF752FD16
:101D00000E2200210548FEF779FE064B1B78194686
:101D10000248FEF77DFC00BF80BD00BF2800002008
:101D2000B82000081000002080B582B000AF012369
:101D3000BB800423BB710123FB713B1D194609487D
:101D4000FFF725F94FF40063BB800423BB71012327
:101D5000FB713B1D19460348FFF719F900BF08370F
:101D6000BD4680BD0008014080B582B000AF802331
:101D7000BB800223BB713B1D19460D48FFF707F9D5
:101D80000223BB800223BB713B1D19460848FFF7A5
:101D9000FEF8012201210648FFF79CF901224FF4C9
:101DA00000610348FFF796F900BF0837BD4680BDC4
:101DB0000008014080B500AF0C215E48FEF754FDDD
:101DC000002200215B48FEF719FE5B495948FEF7E7
:101DD000E9FC002202215748FEF710FE57495548FA
:101DE000FEF7E0FC00BFFEF711FA03464E2BFAD0D7
:101DF000FEF70CFA03461A46514B1A7000BFFEF765
:101E000005FA03464E2BFAD101220E214948FEF76E
:101E1000F5FD4B4B1B7819464648FEF7F9FB0C21A4
:101E20004448FEF721FD002203214248FEF7E6FD6B
:101E300044494048FEF7B6FC00BFFEF7E7F9034609
:101E40004E2BFAD0FEF7E2F903461A463C4B5A7085
:101E500000BFFEF7DBF903464E2BFAD102220A211E
:101E60003448FEF7CBFD364B5B7819463148FEF718
:101E7000CFFB0C212F48FEF7F7FC002204212D4850
:101E8000FEF7BCFD30492B48FEF78CFC00BFFEF787
:101E9000BDF903464E2BFAD0FEF7B8F903461A46B1
:101EA000274B9A7000BFFEF7B1F903464E2BFAD1CB
:101EB00003220A211F48FEF7A1FD214B9B781946FA
:101EC0001C48FEF7A5FB0C211A48FEF7CDFC19486B
:101ED000FEF73CFE002200211648FEF78FFD1B494D
:101EE0001448FEF75FFC0C211248FEF7BDFC0422EB
:101EF00002211048FEF782FD114B1B7819460D4850
:101F0000FEF786FB082202210A48FEF777FD0C4BFC
:101F10005B7819460748FEF77BFB0C220221054837
:101F2000FEF76CFD064B9B7819460248FEF770FBE6
:101F300000BF80BD14000020C8200008D820000881
:101F40006C000020E4200008F0200008FC200008BD
:101F50000D488546AFF300800C480D490D4A00231B
:101F600002E0D458C4500433C4188C42F9D30A4A4E
:101F70000A4C002301E013600432A242FBD300F0BC
:101F800011F8FFF7C3FCFEE7002800200000002046
:101F90003C0000202C2100083C000020B80000205C
:101FA000FEE7000070B500250C4E0D4CA41BA410DC
:101FB000A54209D100F01AF800250A4E0A4CA41BCC
:101FC000A410A54205D170BD56F8253098470135BB
:101FD000EEE756F8253098470135F2E7242100084E
:101FE000242100082421000828210008F8B500BF9A
:101FF000F8BC08BC9E467047F8B500BFF8BC08BCEA
:042000009E46704741
:1020040020456E746572204944203A200000000087
:1020140043617264205265616465722000000000AF
:102024005061726B696E672049732046756C6C0051
:10203400456E747279204E6F7420416C6C6F7765B5
:10204400640000005269676874204944000000007D
:10205400456E7472792067617465204F70656E7384
:1020640000000000526967687420494421000000A0
:10207400457869742047617465204F70656E7300FC
:1020840057726F6E67204944210000005472792012
:10209400416761696E00000057656C636F6D652070
:1020A400696E00004D656E6E61205061726B696EE1
:1020B40067000000456D70747920536C6F74733D34
:1020C40000000000494473206F66207379737465BF
:1020D4006D0000004669727374202049443A000080
:1020E4005365636F6E642049443A00005468697212
:1020F40064202049443A00004944732061726520F9
:1021040053746F7265640000000000000102030450
:102114000000000000000000010203040506070897
:042124005501000859
:042128003101000879
:10212C0001000200040008000010002000400080A4
:10213C0033000000000C0140000C0140000C014079
:10214C00000C014000080004000801400008014098
:0C215C0000080140000801402000400085
:0400000508001F517F
:00000001FF
